{
  "contracts/TipsReceiver.sol": {
    "TipsReceiver": {
      "abi": [
        {
          "anonymous": false,
          "inputs": [
            {
              "indexed": true,
              "internalType": "address",
              "name": "from",
              "type": "address"
            },
            {
              "indexed": true,
              "internalType": "address",
              "name": "to",
              "type": "address"
            },
            {
              "indexed": true,
              "internalType": "address",
              "name": "asset",
              "type": "address"
            },
            {
              "indexed": false,
              "internalType": "uint256",
              "name": "amount",
              "type": "uint256"
            },
            {
              "indexed": false,
              "internalType": "string",
              "name": "message",
              "type": "string"
            }
          ],
          "name": "Donation",
          "type": "event"
        },
        {
          "stateMutability": "payable",
          "type": "fallback"
        },
        {
          "inputs": [],
          "name": "NATIVE_ASSET",
          "outputs": [
            {
              "internalType": "address",
              "name": "",
              "type": "address"
            }
          ],
          "stateMutability": "view",
          "type": "function"
        },
        {
          "inputs": [
            {
              "internalType": "address",
              "name": "to",
              "type": "address"
            },
            {
              "internalType": "address",
              "name": "asset",
              "type": "address"
            },
            {
              "internalType": "uint256",
              "name": "amount",
              "type": "uint256"
            },
            {
              "internalType": "string",
              "name": "message",
              "type": "string"
            }
          ],
          "name": "sendTip",
          "outputs": [],
          "stateMutability": "nonpayable",
          "type": "function"
        },
        {
          "stateMutability": "payable",
          "type": "receive"
        }
      ],
      "evm": {
        "bytecode": {
          "linkReferences": {},
          "object": "608060405234801561001057600080fd5b50610867806100206000396000f3fe60806040526004361061002d5760003560e01c8063b86255eb14610046578063bf53253b1461006f5761003c565b3661003c5761003a61009a565b005b61004461009a565b005b34801561005257600080fd5b5061006d600480360381019061006891906104de565b6101e6565b005b34801561007b57600080fd5b506100846102eb565b6040516100919190610570565b60405180910390f35b600060606000368101906100ae91906105c9565b809250819350505060008273ffffffffffffffffffffffffffffffffffffffff16346040516100dc90610656565b60006040518083038185875af1925050503d8060008114610119576040519150601f19603f3d011682016040523d82523d6000602084013e61011e565b606091505b5050905080610162576040517f08c379a0000000000000000000000000000000000000000000000000000000008152600401610159906106c8565b60405180910390fd5b600073ffffffffffffffffffffffffffffffffffffffff168373ffffffffffffffffffffffffffffffffffffffff163373ffffffffffffffffffffffffffffffffffffffff167f76ee9885bdf7ab07c9dcd36eec76aae99cf9115049855ef70b3c5674f8acf58a34866040516101d9929190610765565b60405180910390a4505050565b8273ffffffffffffffffffffffffffffffffffffffff166323b872dd3386856040518463ffffffff1660e01b815260040161022393929190610795565b6020604051808303816000875af1158015610242573d6000803e3d6000fd5b505050506040513d601f19601f820116820180604052508101906102669190610804565b508273ffffffffffffffffffffffffffffffffffffffff168473ffffffffffffffffffffffffffffffffffffffff163373ffffffffffffffffffffffffffffffffffffffff167f76ee9885bdf7ab07c9dcd36eec76aae99cf9115049855ef70b3c5674f8acf58a85856040516102dd929190610765565b60405180910390a450505050565b600081565b6000604051905090565b600080fd5b600080fd5b600073ffffffffffffffffffffffffffffffffffffffff82169050919050565b600061032f82610304565b9050919050565b61033f81610324565b811461034a57600080fd5b50565b60008135905061035c81610336565b92915050565b6000819050919050565b61037581610362565b811461038057600080fd5b50565b6000813590506103928161036c565b92915050565b600080fd5b600080fd5b6000601f19601f8301169050919050565b7f4e487b7100000000000000000000000000000000000000000000000000000000600052604160045260246000fd5b6103eb826103a2565b810181811067ffffffffffffffff8211171561040a576104096103b3565b5b80604052505050565b600061041d6102f0565b905061042982826103e2565b919050565b600067ffffffffffffffff821115610449576104486103b3565b5b610452826103a2565b9050602081019050919050565b82818337600083830152505050565b600061048161047c8461042e565b610413565b90508281526020810184848401111561049d5761049c61039d565b5b6104a884828561045f565b509392505050565b600082601f8301126104c5576104c4610398565b5b81356104d584826020860161046e565b91505092915050565b600080600080608085870312156104f8576104f76102fa565b5b60006105068782880161034d565b94505060206105178782880161034d565b935050604061052887828801610383565b925050606085013567ffffffffffffffff811115610549576105486102ff565b5b610555878288016104b0565b91505092959194509250565b61056a81610324565b82525050565b60006020820190506105856000830184610561565b92915050565b600061059682610304565b9050919050565b6105a68161058b565b81146105b157600080fd5b50565b6000813590506105c38161059d565b92915050565b600080604083850312156105e0576105df6102fa565b5b60006105ee858286016105b4565b925050602083013567ffffffffffffffff81111561060f5761060e6102ff565b5b61061b858286016104b0565b9150509250929050565b600081905092915050565b50565b6000610640600083610625565b915061064b82610630565b600082019050919050565b600061066182610633565b9150819050919050565b600082825260208201905092915050565b7f4661696c656420746f2073656e64204574686572000000000000000000000000600082015250565b60006106b260148361066b565b91506106bd8261067c565b602082019050919050565b600060208201905081810360008301526106e1816106a5565b9050919050565b6106f181610362565b82525050565b600081519050919050565b60005b83811015610720578082015181840152602081019050610705565b60008484015250505050565b6000610737826106f7565b610741818561066b565b9350610751818560208601610702565b61075a816103a2565b840191505092915050565b600060408201905061077a60008301856106e8565b818103602083015261078c818461072c565b90509392505050565b60006060820190506107aa6000830186610561565b6107b76020830185610561565b6107c460408301846106e8565b949350505050565b60008115159050919050565b6107e1816107cc565b81146107ec57600080fd5b50565b6000815190506107fe816107d8565b92915050565b60006020828403121561081a576108196102fa565b5b6000610828848285016107ef565b9150509291505056fea26469706673582212205e9030103af6b7f855ef87a2aa8100ee6f1bf50b444677b0e22f1b472fbfb48b64736f6c63430008180033",
          "opcodes": "PUSH1 0x80 PUSH1 0x40 MSTORE CALLVALUE DUP1 ISZERO PUSH2 0x10 JUMPI PUSH1 0x0 DUP1 REVERT JUMPDEST POP PUSH2 0x867 DUP1 PUSH2 0x20 PUSH1 0x0 CODECOPY PUSH1 0x0 RETURN INVALID PUSH1 0x80 PUSH1 0x40 MSTORE PUSH1 0x4 CALLDATASIZE LT PUSH2 0x2D JUMPI PUSH1 0x0 CALLDATALOAD PUSH1 0xE0 SHR DUP1 PUSH4 0xB86255EB EQ PUSH2 0x46 JUMPI DUP1 PUSH4 0xBF53253B EQ PUSH2 0x6F JUMPI PUSH2 0x3C JUMP JUMPDEST CALLDATASIZE PUSH2 0x3C JUMPI PUSH2 0x3A PUSH2 0x9A JUMP JUMPDEST STOP JUMPDEST PUSH2 0x44 PUSH2 0x9A JUMP JUMPDEST STOP JUMPDEST CALLVALUE DUP1 ISZERO PUSH2 0x52 JUMPI PUSH1 0x0 DUP1 REVERT JUMPDEST POP PUSH2 0x6D PUSH1 0x4 DUP1 CALLDATASIZE SUB DUP2 ADD SWAP1 PUSH2 0x68 SWAP2 SWAP1 PUSH2 0x4DE JUMP JUMPDEST PUSH2 0x1E6 JUMP JUMPDEST STOP JUMPDEST CALLVALUE DUP1 ISZERO PUSH2 0x7B JUMPI PUSH1 0x0 DUP1 REVERT JUMPDEST POP PUSH2 0x84 PUSH2 0x2EB JUMP JUMPDEST PUSH1 0x40 MLOAD PUSH2 0x91 SWAP2 SWAP1 PUSH2 0x570 JUMP JUMPDEST PUSH1 0x40 MLOAD DUP1 SWAP2 SUB SWAP1 RETURN JUMPDEST PUSH1 0x0 PUSH1 0x60 PUSH1 0x0 CALLDATASIZE DUP2 ADD SWAP1 PUSH2 0xAE SWAP2 SWAP1 PUSH2 0x5C9 JUMP JUMPDEST DUP1 SWAP3 POP DUP2 SWAP4 POP POP POP PUSH1 0x0 DUP3 PUSH20 0xFFFFFFFFFFFFFFFFFFFFFFFFFFFFFFFFFFFFFFFF AND CALLVALUE PUSH1 0x40 MLOAD PUSH2 0xDC SWAP1 PUSH2 0x656 JUMP JUMPDEST PUSH1 0x0 PUSH1 0x40 MLOAD DUP1 DUP4 SUB DUP2 DUP6 DUP8 GAS CALL SWAP3 POP POP POP RETURNDATASIZE DUP1 PUSH1 0x0 DUP2 EQ PUSH2 0x119 JUMPI PUSH1 0x40 MLOAD SWAP2 POP PUSH1 0x1F NOT PUSH1 0x3F RETURNDATASIZE ADD AND DUP3 ADD PUSH1 0x40 MSTORE RETURNDATASIZE DUP3 MSTORE RETURNDATASIZE PUSH1 0x0 PUSH1 0x20 DUP5 ADD RETURNDATACOPY PUSH2 0x11E JUMP JUMPDEST PUSH1 0x60 SWAP2 POP JUMPDEST POP POP SWAP1 POP DUP1 PUSH2 0x162 JUMPI PUSH1 0x40 MLOAD PUSH32 0x8C379A000000000000000000000000000000000000000000000000000000000 DUP2 MSTORE PUSH1 0x4 ADD PUSH2 0x159 SWAP1 PUSH2 0x6C8 JUMP JUMPDEST PUSH1 0x40 MLOAD DUP1 SWAP2 SUB SWAP1 REVERT JUMPDEST PUSH1 0x0 PUSH20 0xFFFFFFFFFFFFFFFFFFFFFFFFFFFFFFFFFFFFFFFF AND DUP4 PUSH20 0xFFFFFFFFFFFFFFFFFFFFFFFFFFFFFFFFFFFFFFFF AND CALLER PUSH20 0xFFFFFFFFFFFFFFFFFFFFFFFFFFFFFFFFFFFFFFFF AND PUSH32 0x76EE9885BDF7AB07C9DCD36EEC76AAE99CF9115049855EF70B3C5674F8ACF58A CALLVALUE DUP7 PUSH1 0x40 MLOAD PUSH2 0x1D9 SWAP3 SWAP2 SWAP1 PUSH2 0x765 JUMP JUMPDEST PUSH1 0x40 MLOAD DUP1 SWAP2 SUB SWAP1 LOG4 POP POP POP JUMP JUMPDEST DUP3 PUSH20 0xFFFFFFFFFFFFFFFFFFFFFFFFFFFFFFFFFFFFFFFF AND PUSH4 0x23B872DD CALLER DUP7 DUP6 PUSH1 0x40 MLOAD DUP5 PUSH4 0xFFFFFFFF AND PUSH1 0xE0 SHL DUP2 MSTORE PUSH1 0x4 ADD PUSH2 0x223 SWAP4 SWAP3 SWAP2 SWAP1 PUSH2 0x795 JUMP JUMPDEST PUSH1 0x20 PUSH1 0x40 MLOAD DUP1 DUP4 SUB DUP2 PUSH1 0x0 DUP8 GAS CALL ISZERO DUP1 ISZERO PUSH2 0x242 JUMPI RETURNDATASIZE PUSH1 0x0 DUP1 RETURNDATACOPY RETURNDATASIZE PUSH1 0x0 REVERT JUMPDEST POP POP POP POP PUSH1 0x40 MLOAD RETURNDATASIZE PUSH1 0x1F NOT PUSH1 0x1F DUP3 ADD AND DUP3 ADD DUP1 PUSH1 0x40 MSTORE POP DUP2 ADD SWAP1 PUSH2 0x266 SWAP2 SWAP1 PUSH2 0x804 JUMP JUMPDEST POP DUP3 PUSH20 0xFFFFFFFFFFFFFFFFFFFFFFFFFFFFFFFFFFFFFFFF AND DUP5 PUSH20 0xFFFFFFFFFFFFFFFFFFFFFFFFFFFFFFFFFFFFFFFF AND CALLER PUSH20 0xFFFFFFFFFFFFFFFFFFFFFFFFFFFFFFFFFFFFFFFF AND PUSH32 0x76EE9885BDF7AB07C9DCD36EEC76AAE99CF9115049855EF70B3C5674F8ACF58A DUP6 DUP6 PUSH1 0x40 MLOAD PUSH2 0x2DD SWAP3 SWAP2 SWAP1 PUSH2 0x765 JUMP JUMPDEST PUSH1 0x40 MLOAD DUP1 SWAP2 SUB SWAP1 LOG4 POP POP POP POP JUMP JUMPDEST PUSH1 0x0 DUP2 JUMP JUMPDEST PUSH1 0x0 PUSH1 0x40 MLOAD SWAP1 POP SWAP1 JUMP JUMPDEST PUSH1 0x0 DUP1 REVERT JUMPDEST PUSH1 0x0 DUP1 REVERT JUMPDEST PUSH1 0x0 PUSH20 0xFFFFFFFFFFFFFFFFFFFFFFFFFFFFFFFFFFFFFFFF DUP3 AND SWAP1 POP SWAP2 SWAP1 POP JUMP JUMPDEST PUSH1 0x0 PUSH2 0x32F DUP3 PUSH2 0x304 JUMP JUMPDEST SWAP1 POP SWAP2 SWAP1 POP JUMP JUMPDEST PUSH2 0x33F DUP2 PUSH2 0x324 JUMP JUMPDEST DUP2 EQ PUSH2 0x34A JUMPI PUSH1 0x0 DUP1 REVERT JUMPDEST POP JUMP JUMPDEST PUSH1 0x0 DUP2 CALLDATALOAD SWAP1 POP PUSH2 0x35C DUP2 PUSH2 0x336 JUMP JUMPDEST SWAP3 SWAP2 POP POP JUMP JUMPDEST PUSH1 0x0 DUP2 SWAP1 POP SWAP2 SWAP1 POP JUMP JUMPDEST PUSH2 0x375 DUP2 PUSH2 0x362 JUMP JUMPDEST DUP2 EQ PUSH2 0x380 JUMPI PUSH1 0x0 DUP1 REVERT JUMPDEST POP JUMP JUMPDEST PUSH1 0x0 DUP2 CALLDATALOAD SWAP1 POP PUSH2 0x392 DUP2 PUSH2 0x36C JUMP JUMPDEST SWAP3 SWAP2 POP POP JUMP JUMPDEST PUSH1 0x0 DUP1 REVERT JUMPDEST PUSH1 0x0 DUP1 REVERT JUMPDEST PUSH1 0x0 PUSH1 0x1F NOT PUSH1 0x1F DUP4 ADD AND SWAP1 POP SWAP2 SWAP1 POP JUMP JUMPDEST PUSH32 0x4E487B7100000000000000000000000000000000000000000000000000000000 PUSH1 0x0 MSTORE PUSH1 0x41 PUSH1 0x4 MSTORE PUSH1 0x24 PUSH1 0x0 REVERT JUMPDEST PUSH2 0x3EB DUP3 PUSH2 0x3A2 JUMP JUMPDEST DUP2 ADD DUP2 DUP2 LT PUSH8 0xFFFFFFFFFFFFFFFF DUP3 GT OR ISZERO PUSH2 0x40A JUMPI PUSH2 0x409 PUSH2 0x3B3 JUMP JUMPDEST JUMPDEST DUP1 PUSH1 0x40 MSTORE POP POP POP JUMP JUMPDEST PUSH1 0x0 PUSH2 0x41D PUSH2 0x2F0 JUMP JUMPDEST SWAP1 POP PUSH2 0x429 DUP3 DUP3 PUSH2 0x3E2 JUMP JUMPDEST SWAP2 SWAP1 POP JUMP JUMPDEST PUSH1 0x0 PUSH8 0xFFFFFFFFFFFFFFFF DUP3 GT ISZERO PUSH2 0x449 JUMPI PUSH2 0x448 PUSH2 0x3B3 JUMP JUMPDEST JUMPDEST PUSH2 0x452 DUP3 PUSH2 0x3A2 JUMP JUMPDEST SWAP1 POP PUSH1 0x20 DUP2 ADD SWAP1 POP SWAP2 SWAP1 POP JUMP JUMPDEST DUP3 DUP2 DUP4 CALLDATACOPY PUSH1 0x0 DUP4 DUP4 ADD MSTORE POP POP POP JUMP JUMPDEST PUSH1 0x0 PUSH2 0x481 PUSH2 0x47C DUP5 PUSH2 0x42E JUMP JUMPDEST PUSH2 0x413 JUMP JUMPDEST SWAP1 POP DUP3 DUP2 MSTORE PUSH1 0x20 DUP2 ADD DUP5 DUP5 DUP5 ADD GT ISZERO PUSH2 0x49D JUMPI PUSH2 0x49C PUSH2 0x39D JUMP JUMPDEST JUMPDEST PUSH2 0x4A8 DUP5 DUP3 DUP6 PUSH2 0x45F JUMP JUMPDEST POP SWAP4 SWAP3 POP POP POP JUMP JUMPDEST PUSH1 0x0 DUP3 PUSH1 0x1F DUP4 ADD SLT PUSH2 0x4C5 JUMPI PUSH2 0x4C4 PUSH2 0x398 JUMP JUMPDEST JUMPDEST DUP2 CALLDATALOAD PUSH2 0x4D5 DUP5 DUP3 PUSH1 0x20 DUP7 ADD PUSH2 0x46E JUMP JUMPDEST SWAP2 POP POP SWAP3 SWAP2 POP POP JUMP JUMPDEST PUSH1 0x0 DUP1 PUSH1 0x0 DUP1 PUSH1 0x80 DUP6 DUP8 SUB SLT ISZERO PUSH2 0x4F8 JUMPI PUSH2 0x4F7 PUSH2 0x2FA JUMP JUMPDEST JUMPDEST PUSH1 0x0 PUSH2 0x506 DUP8 DUP3 DUP9 ADD PUSH2 0x34D JUMP JUMPDEST SWAP5 POP POP PUSH1 0x20 PUSH2 0x517 DUP8 DUP3 DUP9 ADD PUSH2 0x34D JUMP JUMPDEST SWAP4 POP POP PUSH1 0x40 PUSH2 0x528 DUP8 DUP3 DUP9 ADD PUSH2 0x383 JUMP JUMPDEST SWAP3 POP POP PUSH1 0x60 DUP6 ADD CALLDATALOAD PUSH8 0xFFFFFFFFFFFFFFFF DUP2 GT ISZERO PUSH2 0x549 JUMPI PUSH2 0x548 PUSH2 0x2FF JUMP JUMPDEST JUMPDEST PUSH2 0x555 DUP8 DUP3 DUP9 ADD PUSH2 0x4B0 JUMP JUMPDEST SWAP2 POP POP SWAP3 SWAP6 SWAP2 SWAP5 POP SWAP3 POP JUMP JUMPDEST PUSH2 0x56A DUP2 PUSH2 0x324 JUMP JUMPDEST DUP3 MSTORE POP POP JUMP JUMPDEST PUSH1 0x0 PUSH1 0x20 DUP3 ADD SWAP1 POP PUSH2 0x585 PUSH1 0x0 DUP4 ADD DUP5 PUSH2 0x561 JUMP JUMPDEST SWAP3 SWAP2 POP POP JUMP JUMPDEST PUSH1 0x0 PUSH2 0x596 DUP3 PUSH2 0x304 JUMP JUMPDEST SWAP1 POP SWAP2 SWAP1 POP JUMP JUMPDEST PUSH2 0x5A6 DUP2 PUSH2 0x58B JUMP JUMPDEST DUP2 EQ PUSH2 0x5B1 JUMPI PUSH1 0x0 DUP1 REVERT JUMPDEST POP JUMP JUMPDEST PUSH1 0x0 DUP2 CALLDATALOAD SWAP1 POP PUSH2 0x5C3 DUP2 PUSH2 0x59D JUMP JUMPDEST SWAP3 SWAP2 POP POP JUMP JUMPDEST PUSH1 0x0 DUP1 PUSH1 0x40 DUP4 DUP6 SUB SLT ISZERO PUSH2 0x5E0 JUMPI PUSH2 0x5DF PUSH2 0x2FA JUMP JUMPDEST JUMPDEST PUSH1 0x0 PUSH2 0x5EE DUP6 DUP3 DUP7 ADD PUSH2 0x5B4 JUMP JUMPDEST SWAP3 POP POP PUSH1 0x20 DUP4 ADD CALLDATALOAD PUSH8 0xFFFFFFFFFFFFFFFF DUP2 GT ISZERO PUSH2 0x60F JUMPI PUSH2 0x60E PUSH2 0x2FF JUMP JUMPDEST JUMPDEST PUSH2 0x61B DUP6 DUP3 DUP7 ADD PUSH2 0x4B0 JUMP JUMPDEST SWAP2 POP POP SWAP3 POP SWAP3 SWAP1 POP JUMP JUMPDEST PUSH1 0x0 DUP2 SWAP1 POP SWAP3 SWAP2 POP POP JUMP JUMPDEST POP JUMP JUMPDEST PUSH1 0x0 PUSH2 0x640 PUSH1 0x0 DUP4 PUSH2 0x625 JUMP JUMPDEST SWAP2 POP PUSH2 0x64B DUP3 PUSH2 0x630 JUMP JUMPDEST PUSH1 0x0 DUP3 ADD SWAP1 POP SWAP2 SWAP1 POP JUMP JUMPDEST PUSH1 0x0 PUSH2 0x661 DUP3 PUSH2 0x633 JUMP JUMPDEST SWAP2 POP DUP2 SWAP1 POP SWAP2 SWAP1 POP JUMP JUMPDEST PUSH1 0x0 DUP3 DUP3 MSTORE PUSH1 0x20 DUP3 ADD SWAP1 POP SWAP3 SWAP2 POP POP JUMP JUMPDEST PUSH32 0x4661696C656420746F2073656E64204574686572000000000000000000000000 PUSH1 0x0 DUP3 ADD MSTORE POP JUMP JUMPDEST PUSH1 0x0 PUSH2 0x6B2 PUSH1 0x14 DUP4 PUSH2 0x66B JUMP JUMPDEST SWAP2 POP PUSH2 0x6BD DUP3 PUSH2 0x67C JUMP JUMPDEST PUSH1 0x20 DUP3 ADD SWAP1 POP SWAP2 SWAP1 POP JUMP JUMPDEST PUSH1 0x0 PUSH1 0x20 DUP3 ADD SWAP1 POP DUP2 DUP2 SUB PUSH1 0x0 DUP4 ADD MSTORE PUSH2 0x6E1 DUP2 PUSH2 0x6A5 JUMP JUMPDEST SWAP1 POP SWAP2 SWAP1 POP JUMP JUMPDEST PUSH2 0x6F1 DUP2 PUSH2 0x362 JUMP JUMPDEST DUP3 MSTORE POP POP JUMP JUMPDEST PUSH1 0x0 DUP2 MLOAD SWAP1 POP SWAP2 SWAP1 POP JUMP JUMPDEST PUSH1 0x0 JUMPDEST DUP4 DUP2 LT ISZERO PUSH2 0x720 JUMPI DUP1 DUP3 ADD MLOAD DUP2 DUP5 ADD MSTORE PUSH1 0x20 DUP2 ADD SWAP1 POP PUSH2 0x705 JUMP JUMPDEST PUSH1 0x0 DUP5 DUP5 ADD MSTORE POP POP POP POP JUMP JUMPDEST PUSH1 0x0 PUSH2 0x737 DUP3 PUSH2 0x6F7 JUMP JUMPDEST PUSH2 0x741 DUP2 DUP6 PUSH2 0x66B JUMP JUMPDEST SWAP4 POP PUSH2 0x751 DUP2 DUP6 PUSH1 0x20 DUP7 ADD PUSH2 0x702 JUMP JUMPDEST PUSH2 0x75A DUP2 PUSH2 0x3A2 JUMP JUMPDEST DUP5 ADD SWAP2 POP POP SWAP3 SWAP2 POP POP JUMP JUMPDEST PUSH1 0x0 PUSH1 0x40 DUP3 ADD SWAP1 POP PUSH2 0x77A PUSH1 0x0 DUP4 ADD DUP6 PUSH2 0x6E8 JUMP JUMPDEST DUP2 DUP2 SUB PUSH1 0x20 DUP4 ADD MSTORE PUSH2 0x78C DUP2 DUP5 PUSH2 0x72C JUMP JUMPDEST SWAP1 POP SWAP4 SWAP3 POP POP POP JUMP JUMPDEST PUSH1 0x0 PUSH1 0x60 DUP3 ADD SWAP1 POP PUSH2 0x7AA PUSH1 0x0 DUP4 ADD DUP7 PUSH2 0x561 JUMP JUMPDEST PUSH2 0x7B7 PUSH1 0x20 DUP4 ADD DUP6 PUSH2 0x561 JUMP JUMPDEST PUSH2 0x7C4 PUSH1 0x40 DUP4 ADD DUP5 PUSH2 0x6E8 JUMP JUMPDEST SWAP5 SWAP4 POP POP POP POP JUMP JUMPDEST PUSH1 0x0 DUP2 ISZERO ISZERO SWAP1 POP SWAP2 SWAP1 POP JUMP JUMPDEST PUSH2 0x7E1 DUP2 PUSH2 0x7CC JUMP JUMPDEST DUP2 EQ PUSH2 0x7EC JUMPI PUSH1 0x0 DUP1 REVERT JUMPDEST POP JUMP JUMPDEST PUSH1 0x0 DUP2 MLOAD SWAP1 POP PUSH2 0x7FE DUP2 PUSH2 0x7D8 JUMP JUMPDEST SWAP3 SWAP2 POP POP JUMP JUMPDEST PUSH1 0x0 PUSH1 0x20 DUP3 DUP5 SUB SLT ISZERO PUSH2 0x81A JUMPI PUSH2 0x819 PUSH2 0x2FA JUMP JUMPDEST JUMPDEST PUSH1 0x0 PUSH2 0x828 DUP5 DUP3 DUP6 ADD PUSH2 0x7EF JUMP JUMPDEST SWAP2 POP POP SWAP3 SWAP2 POP POP JUMP INVALID LOG2 PUSH5 0x6970667358 0x22 SLT KECCAK256 MCOPY SWAP1 ADDRESS LT GASPRICE 0xF6 0xB7 0xF8 SSTORE 0xEF DUP8 LOG2 0xAA DUP2 STOP 0xEE PUSH16 0x1BF50B444677B0E22F1B472FBFB48B64 PUSH20 0x6F6C634300081800330000000000000000000000 "
        },
        "methodIdentifiers": {
          "NATIVE_ASSET()": "bf53253b",
          "sendTip(address,address,uint256,string)": "b86255eb"
        }
      }
    }
  }
}